{
  "_format": "hh-sol-artifact-1",
  "contractName": "Example",
  "sourceName": "contracts/Example.sol",
  "abi": [
    {
      "inputs": [],
      "name": "custom",
      "outputs": [
        {
          "internalType": "string",
          "name": "",
          "type": "string"
        }
      ],
      "stateMutability": "view",
      "type": "function"
    },
    {
      "inputs": [],
      "name": "helo",
      "outputs": [
        {
          "internalType": "string",
          "name": "",
          "type": "string"
        }
      ],
      "stateMutability": "view",
      "type": "function"
    },
    {
      "inputs": [
        {
          "internalType": "string",
          "name": "name",
          "type": "string"
        }
      ],
      "name": "update",
      "outputs": [
        {
          "internalType": "string",
          "name": "",
          "type": "string"
        }
      ],
      "stateMutability": "nonpayable",
      "type": "function"
    }
  ],
  "bytecode": "0x608060405260405180602001604052805f8152505f90816200002291906200029a565b503480156200002f575f80fd5b506200037e565b5f81519050919050565b7f4e487b71000000000000000000000000000000000000000000000000000000005f52604160045260245ffd5b7f4e487b71000000000000000000000000000000000000000000000000000000005f52602260045260245ffd5b5f6002820490506001821680620000b257607f821691505b602082108103620000c857620000c76200006d565b5b50919050565b5f819050815f5260205f209050919050565b5f6020601f8301049050919050565b5f82821b905092915050565b5f600883026200012c7fffffffffffffffffffffffffffffffffffffffffffffffffffffffffffffffff82620000ef565b620001388683620000ef565b95508019841693508086168417925050509392505050565b5f819050919050565b5f819050919050565b5f620001826200017c620001768462000150565b62000159565b62000150565b9050919050565b5f819050919050565b6200019d8362000162565b620001b5620001ac8262000189565b848454620000fb565b825550505050565b5f90565b620001cb620001bd565b620001d881848462000192565b505050565b5b81811015620001ff57620001f35f82620001c1565b600181019050620001de565b5050565b601f8211156200024e576200021881620000ce565b6200022384620000e0565b8101602085101562000233578190505b6200024b6200024285620000e0565b830182620001dd565b50505b505050565b5f82821c905092915050565b5f620002705f198460080262000253565b1980831691505092915050565b5f6200028a83836200025f565b9150826002028217905092915050565b620002a58262000036565b67ffffffffffffffff811115620002c157620002c062000040565b5b620002cd82546200009a565b620002da82828562000203565b5f60209050601f83116001811462000310575f8415620002fb578287015190505b6200030785826200027d565b86555062000376565b601f1984166200032086620000ce565b5f5b82811015620003495784890151825560018201915060208501945060208101905062000322565b8683101562000369578489015162000365601f8916826200025f565b8355505b6001600288020188555050505b505050505050565b6107a4806200038c5f395ff3fe608060405234801561000f575f80fd5b506004361061003f575f3560e01c80633d7403a31461004357806363faf3ad14610073578063c231aa3014610091575b5f80fd5b61005d600480360381019061005891906103bb565b6100af565b60405161006a919061047c565b60405180910390f35b61007b61014f565b604051610088919061047c565b60405180910390f35b6100996101e3565b6040516100a6919061047c565b60405180910390f35b6060815f90816100bf919061069f565b505f80546100cc906104c9565b80601f01602080910402602001604051908101604052809291908181526020018280546100f8906104c9565b80156101435780601f1061011a57610100808354040283529160200191610143565b820191905f5260205f20905b81548152906001019060200180831161012657829003601f168201915b50505050509050919050565b60605f80805461015e906104c9565b80601f016020809104026020016040519081016040528092919081815260200182805461018a906104c9565b80156101d55780601f106101ac576101008083540402835291602001916101d5565b820191905f5260205f20905b8154815290600101906020018083116101b857829003601f168201915b505050505090508091505090565b5f80546101ef906104c9565b80601f016020809104026020016040519081016040528092919081815260200182805461021b906104c9565b80156102665780601f1061023d57610100808354040283529160200191610266565b820191905f5260205f20905b81548152906001019060200180831161024957829003601f168201915b505050505081565b5f604051905090565b5f80fd5b5f80fd5b5f80fd5b5f80fd5b5f601f19601f8301169050919050565b7f4e487b71000000000000000000000000000000000000000000000000000000005f52604160045260245ffd5b6102cd82610287565b810181811067ffffffffffffffff821117156102ec576102eb610297565b5b80604052505050565b5f6102fe61026e565b905061030a82826102c4565b919050565b5f67ffffffffffffffff82111561032957610328610297565b5b61033282610287565b9050602081019050919050565b828183375f83830152505050565b5f61035f61035a8461030f565b6102f5565b90508281526020810184848401111561037b5761037a610283565b5b61038684828561033f565b509392505050565b5f82601f8301126103a2576103a161027f565b5b81356103b284826020860161034d565b91505092915050565b5f602082840312156103d0576103cf610277565b5b5f82013567ffffffffffffffff8111156103ed576103ec61027b565b5b6103f98482850161038e565b91505092915050565b5f81519050919050565b5f82825260208201905092915050565b5f5b8381101561043957808201518184015260208101905061041e565b5f8484015250505050565b5f61044e82610402565b610458818561040c565b935061046881856020860161041c565b61047181610287565b840191505092915050565b5f6020820190508181035f8301526104948184610444565b905092915050565b7f4e487b71000000000000000000000000000000000000000000000000000000005f52602260045260245ffd5b5f60028204905060018216806104e057607f821691505b6020821081036104f3576104f261049c565b5b50919050565b5f819050815f5260205f209050919050565b5f6020601f8301049050919050565b5f82821b905092915050565b5f600883026105557fffffffffffffffffffffffffffffffffffffffffffffffffffffffffffffffff8261051a565b61055f868361051a565b95508019841693508086168417925050509392505050565b5f819050919050565b5f819050919050565b5f6105a361059e61059984610577565b610580565b610577565b9050919050565b5f819050919050565b6105bc83610589565b6105d06105c8826105aa565b848454610526565b825550505050565b5f90565b6105e46105d8565b6105ef8184846105b3565b505050565b5b81811015610612576106075f826105dc565b6001810190506105f5565b5050565b601f82111561065757610628816104f9565b6106318461050b565b81016020851015610640578190505b61065461064c8561050b565b8301826105f4565b50505b505050565b5f82821c905092915050565b5f6106775f198460080261065c565b1980831691505092915050565b5f61068f8383610668565b9150826002028217905092915050565b6106a882610402565b67ffffffffffffffff8111156106c1576106c0610297565b5b6106cb82546104c9565b6106d6828285610616565b5f60209050601f831160018114610707575f84156106f5578287015190505b6106ff8582610684565b865550610766565b601f198416610715866104f9565b5f5b8281101561073c57848901518255600182019150602085019450602081019050610717565b868310156107595784890151610755601f891682610668565b8355505b6001600288020188555050505b50505050505056fea2646970667358221220a625fc0ec95092bd866de1cab6ad4bb0785493a40423e19950e40ef00473138064736f6c63430008170033",
  "linkReferences": {},
  "deployedLinkReferences": {}
}