{
  "_format": "hh-sol-artifact-1",
  "contractName": "GHO",
  "sourceName": "contracts/GHO.sol",
  "abi": [
    {
      "inputs": [],
      "stateMutability": "nonpayable",
      "type": "constructor"
    },
    {
      "inputs": [
        {
          "internalType": "string",
          "name": "_productName",
          "type": "string"
        },
        {
          "internalType": "string",
          "name": "_description",
          "type": "string"
        },
        {
          "internalType": "string",
          "name": "_imgURL",
          "type": "string"
        }
      ],
      "name": "addEntry",
      "outputs": [],
      "stateMutability": "nonpayable",
      "type": "function"
    },
    {
      "inputs": [],
      "name": "getAllEntries",
      "outputs": [
        {
          "components": [
            {
              "internalType": "string",
              "name": "productName",
              "type": "string"
            },
            {
              "internalType": "string",
              "name": "description",
              "type": "string"
            },
            {
              "internalType": "string",
              "name": "imgURL",
              "type": "string"
            },
            {
              "internalType": "address",
              "name": "walletAddress",
              "type": "address"
            },
            {
              "internalType": "uint256",
              "name": "likes",
              "type": "uint256"
            },
            {
              "internalType": "bool",
              "name": "isWinner",
              "type": "bool"
            }
          ],
          "internalType": "struct GHO.Entry[]",
          "name": "",
          "type": "tuple[]"
        }
      ],
      "stateMutability": "view",
      "type": "function"
    },
    {
      "inputs": [],
      "name": "numberOfEntries",
      "outputs": [
        {
          "internalType": "uint256",
          "name": "",
          "type": "uint256"
        }
      ],
      "stateMutability": "view",
      "type": "function"
    },
    {
      "inputs": [],
      "name": "owner",
      "outputs": [
        {
          "internalType": "address",
          "name": "",
          "type": "address"
        }
      ],
      "stateMutability": "view",
      "type": "function"
    },
    {
      "inputs": [],
      "name": "token",
      "outputs": [
        {
          "internalType": "contract IERC20",
          "name": "",
          "type": "address"
        }
      ],
      "stateMutability": "view",
      "type": "function"
    },
    {
      "inputs": [
        {
          "internalType": "address",
          "name": "recipient",
          "type": "address"
        },
        {
          "internalType": "uint256",
          "name": "amount",
          "type": "uint256"
        }
      ],
      "name": "transferToken",
      "outputs": [
        {
          "internalType": "bool",
          "name": "",
          "type": "bool"
        }
      ],
      "stateMutability": "nonpayable",
      "type": "function"
    }
  ],
  "bytecode": "0x608060405234801561000f575f80fd5b5073c4bf5cbdabe595361438f8c6a187bdc330539c605f806101000a81548173ffffffffffffffffffffffffffffffffffffffff021916908373ffffffffffffffffffffffffffffffffffffffff1602179055503360015f6101000a81548173ffffffffffffffffffffffffffffffffffffffff021916908373ffffffffffffffffffffffffffffffffffffffff1602179055506110b3806100b05f395ff3fe608060405234801561000f575f80fd5b5060043610610060575f3560e01c80631072cbea146100645780634a0364e814610094578063825f7872146100b25780638da5cb5b146100d0578063e7a9f27f146100ee578063fc0c546a1461010a575b5f80fd5b61007e60048036038101906100799190610704565b610128565b60405161008b919061075c565b60405180910390f35b61009c61025a565b6040516100a9919061097b565b60405180910390f35b6100ba6104de565b6040516100c791906109aa565b60405180910390f35b6100d86104e4565b6040516100e591906109d2565b60405180910390f35b61010860048036038101906101039190610b17565b610509565b005b610112610643565b60405161011f9190610c16565b60405180910390f35b5f60015f9054906101000a900473ffffffffffffffffffffffffffffffffffffffff1673ffffffffffffffffffffffffffffffffffffffff163373ffffffffffffffffffffffffffffffffffffffff16146101b8576040517f08c379a00000000000000000000000000000000000000000000000000000000081526004016101af90610caf565b60405180910390fd5b5f8054906101000a900473ffffffffffffffffffffffffffffffffffffffff1673ffffffffffffffffffffffffffffffffffffffff1663a9059cbb84846040518363ffffffff1660e01b8152600401610212929190610ccd565b6020604051808303815f875af115801561022e573d5f803e3d5ffd5b505050506040513d601f19601f820116820180604052508101906102529190610d1e565b905092915050565b60606003805480602002602001604051908101604052809291908181526020015f905b828210156104d5578382905f5260205f2090600602016040518060c00160405290815f820180546102ad90610d76565b80601f01602080910402602001604051908101604052809291908181526020018280546102d990610d76565b80156103245780601f106102fb57610100808354040283529160200191610324565b820191905f5260205f20905b81548152906001019060200180831161030757829003601f168201915b5050505050815260200160018201805461033d90610d76565b80601f016020809104026020016040519081016040528092919081815260200182805461036990610d76565b80156103b45780601f1061038b576101008083540402835291602001916103b4565b820191905f5260205f20905b81548152906001019060200180831161039757829003601f168201915b505050505081526020016002820180546103cd90610d76565b80601f01602080910402602001604051908101604052809291908181526020018280546103f990610d76565b80156104445780601f1061041b57610100808354040283529160200191610444565b820191905f5260205f20905b81548152906001019060200180831161042757829003601f168201915b50505050508152602001600382015f9054906101000a900473ffffffffffffffffffffffffffffffffffffffff1673ffffffffffffffffffffffffffffffffffffffff1673ffffffffffffffffffffffffffffffffffffffff16815260200160048201548152602001600582015f9054906101000a900460ff1615151515815250508152602001906001019061027d565b50505050905090565b60025481565b60015f9054906101000a900473ffffffffffffffffffffffffffffffffffffffff1681565b60036040518060c001604052808581526020018481526020018381526020013373ffffffffffffffffffffffffffffffffffffffff1681526020015f81526020015f1515815250908060018154018082558091505060019003905f5260205f2090600602015f909190919091505f820151815f0190816105899190610f3a565b50602082015181600101908161059f9190610f3a565b5060408201518160020190816105b59190610f3a565b506060820151816003015f6101000a81548173ffffffffffffffffffffffffffffffffffffffff021916908373ffffffffffffffffffffffffffffffffffffffff1602179055506080820151816004015560a0820151816005015f6101000a81548160ff021916908315150217905550505060025f81548092919061063990611036565b9190505550505050565b5f8054906101000a900473ffffffffffffffffffffffffffffffffffffffff1681565b5f604051905090565b5f80fd5b5f80fd5b5f73ffffffffffffffffffffffffffffffffffffffff82169050919050565b5f6106a082610677565b9050919050565b6106b081610696565b81146106ba575f80fd5b50565b5f813590506106cb816106a7565b92915050565b5f819050919050565b6106e3816106d1565b81146106ed575f80fd5b50565b5f813590506106fe816106da565b92915050565b5f806040838503121561071a5761071961066f565b5b5f610727858286016106bd565b9250506020610738858286016106f0565b9150509250929050565b5f8115159050919050565b61075681610742565b82525050565b5f60208201905061076f5f83018461074d565b92915050565b5f81519050919050565b5f82825260208201905092915050565b5f819050602082019050919050565b5f81519050919050565b5f82825260208201905092915050565b5f5b838110156107d55780820151818401526020810190506107ba565b5f8484015250505050565b5f601f19601f8301169050919050565b5f6107fa8261079e565b61080481856107a8565b93506108148185602086016107b8565b61081d816107e0565b840191505092915050565b61083181610696565b82525050565b610840816106d1565b82525050565b61084f81610742565b82525050565b5f60c083015f8301518482035f86015261086f82826107f0565b9150506020830151848203602086015261088982826107f0565b915050604083015184820360408601526108a382826107f0565b91505060608301516108b86060860182610828565b5060808301516108cb6080860182610837565b5060a08301516108de60a0860182610846565b508091505092915050565b5f6108f48383610855565b905092915050565b5f602082019050919050565b5f61091282610775565b61091c818561077f565b93508360208202850161092e8561078f565b805f5b85811015610969578484038952815161094a85826108e9565b9450610955836108fc565b925060208a01995050600181019050610931565b50829750879550505050505092915050565b5f6020820190508181035f8301526109938184610908565b905092915050565b6109a4816106d1565b82525050565b5f6020820190506109bd5f83018461099b565b92915050565b6109cc81610696565b82525050565b5f6020820190506109e55f8301846109c3565b92915050565b5f80fd5b5f80fd5b7f4e487b71000000000000000000000000000000000000000000000000000000005f52604160045260245ffd5b610a29826107e0565b810181811067ffffffffffffffff82111715610a4857610a476109f3565b5b80604052505050565b5f610a5a610666565b9050610a668282610a20565b919050565b5f67ffffffffffffffff821115610a8557610a846109f3565b5b610a8e826107e0565b9050602081019050919050565b828183375f83830152505050565b5f610abb610ab684610a6b565b610a51565b905082815260208101848484011115610ad757610ad66109ef565b5b610ae2848285610a9b565b509392505050565b5f82601f830112610afe57610afd6109eb565b5b8135610b0e848260208601610aa9565b91505092915050565b5f805f60608486031215610b2e57610b2d61066f565b5b5f84013567ffffffffffffffff811115610b4b57610b4a610673565b5b610b5786828701610aea565b935050602084013567ffffffffffffffff811115610b7857610b77610673565b5b610b8486828701610aea565b925050604084013567ffffffffffffffff811115610ba557610ba4610673565b5b610bb186828701610aea565b9150509250925092565b5f819050919050565b5f610bde610bd9610bd484610677565b610bbb565b610677565b9050919050565b5f610bef82610bc4565b9050919050565b5f610c0082610be5565b9050919050565b610c1081610bf6565b82525050565b5f602082019050610c295f830184610c07565b92915050565b5f82825260208201905092915050565b7f596f7520617265206e6f7420417574686f726973656420746f20706572666f725f8201527f6d207468697320416374696f6e00000000000000000000000000000000000000602082015250565b5f610c99602d83610c2f565b9150610ca482610c3f565b604082019050919050565b5f6020820190508181035f830152610cc681610c8d565b9050919050565b5f604082019050610ce05f8301856109c3565b610ced602083018461099b565b9392505050565b610cfd81610742565b8114610d07575f80fd5b50565b5f81519050610d1881610cf4565b92915050565b5f60208284031215610d3357610d3261066f565b5b5f610d4084828501610d0a565b91505092915050565b7f4e487b71000000000000000000000000000000000000000000000000000000005f52602260045260245ffd5b5f6002820490506001821680610d8d57607f821691505b602082108103610da057610d9f610d49565b5b50919050565b5f819050815f5260205f209050919050565b5f6020601f8301049050919050565b5f82821b905092915050565b5f60088302610e027fffffffffffffffffffffffffffffffffffffffffffffffffffffffffffffffff82610dc7565b610e0c8683610dc7565b95508019841693508086168417925050509392505050565b5f610e3e610e39610e34846106d1565b610bbb565b6106d1565b9050919050565b5f819050919050565b610e5783610e24565b610e6b610e6382610e45565b848454610dd3565b825550505050565b5f90565b610e7f610e73565b610e8a818484610e4e565b505050565b5b81811015610ead57610ea25f82610e77565b600181019050610e90565b5050565b601f821115610ef257610ec381610da6565b610ecc84610db8565b81016020851015610edb578190505b610eef610ee785610db8565b830182610e8f565b50505b505050565b5f82821c905092915050565b5f610f125f1984600802610ef7565b1980831691505092915050565b5f610f2a8383610f03565b9150826002028217905092915050565b610f438261079e565b67ffffffffffffffff811115610f5c57610f5b6109f3565b5b610f668254610d76565b610f71828285610eb1565b5f60209050601f831160018114610fa2575f8415610f90578287015190505b610f9a8582610f1f565b865550611001565b601f198416610fb086610da6565b5f5b82811015610fd757848901518255600182019150602085019450602081019050610fb2565b86831015610ff45784890151610ff0601f891682610f03565b8355505b6001600288020188555050505b505050505050565b7f4e487b71000000000000000000000000000000000000000000000000000000005f52601160045260245ffd5b5f611040826106d1565b91507fffffffffffffffffffffffffffffffffffffffffffffffffffffffffffffffff820361107257611071611009565b5b60018201905091905056fea26469706673582212209463f595e14752f039bb270ea35c19875498cf27c626e63d23540d91a92c482e64736f6c63430008170033",
  "linkReferences": {},
  "deployedLinkReferences": {}
}