{
  "_format": "hh-sol-artifact-1",
  "contractName": "GHO",
  "sourceName": "contracts/GHO.sol",
  "abi": [
    {
      "inputs": [],
      "stateMutability": "nonpayable",
      "type": "constructor"
    },
    {
      "inputs": [
        {
          "internalType": "string",
          "name": "_productName",
          "type": "string"
        },
        {
          "internalType": "string",
          "name": "_description",
          "type": "string"
        },
        {
          "internalType": "string",
          "name": "_imgURL",
          "type": "string"
        }
      ],
      "name": "addEntry",
      "outputs": [],
      "stateMutability": "nonpayable",
      "type": "function"
    },
    {
      "inputs": [],
      "name": "getAllEntries",
      "outputs": [
        {
          "components": [
            {
              "internalType": "string",
              "name": "productName",
              "type": "string"
            },
            {
              "internalType": "string",
              "name": "description",
              "type": "string"
            },
            {
              "internalType": "string",
              "name": "imgURL",
              "type": "string"
            },
            {
              "internalType": "address",
              "name": "walletAddress",
              "type": "address"
            },
            {
              "internalType": "uint256",
              "name": "likes",
              "type": "uint256"
            },
            {
              "internalType": "bool",
              "name": "isWinner",
              "type": "bool"
            }
          ],
          "internalType": "struct GHO.Entry[]",
          "name": "",
          "type": "tuple[]"
        }
      ],
      "stateMutability": "view",
      "type": "function"
    },
    {
      "inputs": [],
      "name": "numberOfEntries",
      "outputs": [
        {
          "internalType": "uint256",
          "name": "",
          "type": "uint256"
        }
      ],
      "stateMutability": "view",
      "type": "function"
    },
    {
      "inputs": [],
      "name": "owner",
      "outputs": [
        {
          "internalType": "address",
          "name": "",
          "type": "address"
        }
      ],
      "stateMutability": "view",
      "type": "function"
    },
    {
      "inputs": [],
      "name": "token",
      "outputs": [
        {
          "internalType": "contract IERC20",
          "name": "",
          "type": "address"
        }
      ],
      "stateMutability": "view",
      "type": "function"
    },
    {
      "inputs": [
        {
          "internalType": "address",
          "name": "recipient",
          "type": "address"
        }
      ],
      "name": "transferToken",
      "outputs": [
        {
          "internalType": "bool",
          "name": "",
          "type": "bool"
        }
      ],
      "stateMutability": "nonpayable",
      "type": "function"
    }
  ],
  "bytecode": "0x608060405234801561000f575f80fd5b5073c4bf5cbdabe595361438f8c6a187bdc330539c605f806101000a81548173ffffffffffffffffffffffffffffffffffffffff021916908373ffffffffffffffffffffffffffffffffffffffff1602179055503360015f6101000a81548173ffffffffffffffffffffffffffffffffffffffff021916908373ffffffffffffffffffffffffffffffffffffffff1602179055506110b6806100b05f395ff3fe608060405234801561000f575f80fd5b5060043610610060575f3560e01c80634a0364e814610064578063825f7872146100825780638da5cb5b146100a0578063deebeac9146100be578063e7a9f27f146100ee578063fc0c546a1461010a575b5f80fd5b61006c610128565b60405161007991906108b7565b60405180910390f35b61008a6103ac565b60405161009791906108e6565b60405180910390f35b6100a86103b2565b6040516100b5919061090e565b60405180910390f35b6100d860048036038101906100d39190610962565b6103d7565b6040516100e5919061099c565b60405180910390f35b61010860048036038101906101039190610ae1565b610510565b005b61011261064a565b60405161011f9190610be0565b60405180910390f35b60606003805480602002602001604051908101604052809291908181526020015f905b828210156103a3578382905f5260205f2090600602016040518060c00160405290815f8201805461017b90610c26565b80601f01602080910402602001604051908101604052809291908181526020018280546101a790610c26565b80156101f25780601f106101c9576101008083540402835291602001916101f2565b820191905f5260205f20905b8154815290600101906020018083116101d557829003601f168201915b5050505050815260200160018201805461020b90610c26565b80601f016020809104026020016040519081016040528092919081815260200182805461023790610c26565b80156102825780601f1061025957610100808354040283529160200191610282565b820191905f5260205f20905b81548152906001019060200180831161026557829003601f168201915b5050505050815260200160028201805461029b90610c26565b80601f01602080910402602001604051908101604052809291908181526020018280546102c790610c26565b80156103125780601f106102e957610100808354040283529160200191610312565b820191905f5260205f20905b8154815290600101906020018083116102f557829003601f168201915b50505050508152602001600382015f9054906101000a900473ffffffffffffffffffffffffffffffffffffffff1673ffffffffffffffffffffffffffffffffffffffff1673ffffffffffffffffffffffffffffffffffffffff16815260200160048201548152602001600582015f9054906101000a900460ff1615151515815250508152602001906001019061014b565b50505050905090565b60025481565b60015f9054906101000a900473ffffffffffffffffffffffffffffffffffffffff1681565b5f60015f9054906101000a900473ffffffffffffffffffffffffffffffffffffffff1673ffffffffffffffffffffffffffffffffffffffff163373ffffffffffffffffffffffffffffffffffffffff1614610467576040517f08c379a000000000000000000000000000000000000000000000000000000000815260040161045e90610cd6565b60405180910390fd5b5f8054906101000a900473ffffffffffffffffffffffffffffffffffffffff1673ffffffffffffffffffffffffffffffffffffffff1663a9059cbb83670de0b6b3a76400006040518363ffffffff1660e01b81526004016104c9929190610d2d565b6020604051808303815f875af11580156104e5573d5f803e3d5ffd5b505050506040513d601f19601f820116820180604052508101906105099190610d7e565b9050919050565b60036040518060c001604052808581526020018481526020018381526020013373ffffffffffffffffffffffffffffffffffffffff1681526020015f81526020015f1515815250908060018154018082558091505060019003905f5260205f2090600602015f909190919091505f820151815f0190816105909190610f3d565b5060208201518160010190816105a69190610f3d565b5060408201518160020190816105bc9190610f3d565b506060820151816003015f6101000a81548173ffffffffffffffffffffffffffffffffffffffff021916908373ffffffffffffffffffffffffffffffffffffffff1602179055506080820151816004015560a0820151816005015f6101000a81548160ff021916908315150217905550505060025f81548092919061064090611039565b9190505550505050565b5f8054906101000a900473ffffffffffffffffffffffffffffffffffffffff1681565b5f81519050919050565b5f82825260208201905092915050565b5f819050602082019050919050565b5f81519050919050565b5f82825260208201905092915050565b5f5b838110156106cd5780820151818401526020810190506106b2565b5f8484015250505050565b5f601f19601f8301169050919050565b5f6106f282610696565b6106fc81856106a0565b935061070c8185602086016106b0565b610715816106d8565b840191505092915050565b5f73ffffffffffffffffffffffffffffffffffffffff82169050919050565b5f61074982610720565b9050919050565b6107598161073f565b82525050565b5f819050919050565b6107718161075f565b82525050565b5f8115159050919050565b61078b81610777565b82525050565b5f60c083015f8301518482035f8601526107ab82826106e8565b915050602083015184820360208601526107c582826106e8565b915050604083015184820360408601526107df82826106e8565b91505060608301516107f46060860182610750565b5060808301516108076080860182610768565b5060a083015161081a60a0860182610782565b508091505092915050565b5f6108308383610791565b905092915050565b5f602082019050919050565b5f61084e8261066d565b6108588185610677565b93508360208202850161086a85610687565b805f5b858110156108a557848403895281516108868582610825565b945061089183610838565b925060208a0199505060018101905061086d565b50829750879550505050505092915050565b5f6020820190508181035f8301526108cf8184610844565b905092915050565b6108e08161075f565b82525050565b5f6020820190506108f95f8301846108d7565b92915050565b6109088161073f565b82525050565b5f6020820190506109215f8301846108ff565b92915050565b5f604051905090565b5f80fd5b5f80fd5b6109418161073f565b811461094b575f80fd5b50565b5f8135905061095c81610938565b92915050565b5f6020828403121561097757610976610930565b5b5f6109848482850161094e565b91505092915050565b61099681610777565b82525050565b5f6020820190506109af5f83018461098d565b92915050565b5f80fd5b5f80fd5b7f4e487b71000000000000000000000000000000000000000000000000000000005f52604160045260245ffd5b6109f3826106d8565b810181811067ffffffffffffffff82111715610a1257610a116109bd565b5b80604052505050565b5f610a24610927565b9050610a3082826109ea565b919050565b5f67ffffffffffffffff821115610a4f57610a4e6109bd565b5b610a58826106d8565b9050602081019050919050565b828183375f83830152505050565b5f610a85610a8084610a35565b610a1b565b905082815260208101848484011115610aa157610aa06109b9565b5b610aac848285610a65565b509392505050565b5f82601f830112610ac857610ac76109b5565b5b8135610ad8848260208601610a73565b91505092915050565b5f805f60608486031215610af857610af7610930565b5b5f84013567ffffffffffffffff811115610b1557610b14610934565b5b610b2186828701610ab4565b935050602084013567ffffffffffffffff811115610b4257610b41610934565b5b610b4e86828701610ab4565b925050604084013567ffffffffffffffff811115610b6f57610b6e610934565b5b610b7b86828701610ab4565b9150509250925092565b5f819050919050565b5f610ba8610ba3610b9e84610720565b610b85565b610720565b9050919050565b5f610bb982610b8e565b9050919050565b5f610bca82610baf565b9050919050565b610bda81610bc0565b82525050565b5f602082019050610bf35f830184610bd1565b92915050565b7f4e487b71000000000000000000000000000000000000000000000000000000005f52602260045260245ffd5b5f6002820490506001821680610c3d57607f821691505b602082108103610c5057610c4f610bf9565b5b50919050565b5f82825260208201905092915050565b7f596f7520617265206e6f7420417574686f726973656420746f20706572666f725f8201527f6d207468697320416374696f6e00000000000000000000000000000000000000602082015250565b5f610cc0602d83610c56565b9150610ccb82610c66565b604082019050919050565b5f6020820190508181035f830152610ced81610cb4565b9050919050565b5f819050919050565b5f610d17610d12610d0d84610cf4565b610b85565b61075f565b9050919050565b610d2781610cfd565b82525050565b5f604082019050610d405f8301856108ff565b610d4d6020830184610d1e565b9392505050565b610d5d81610777565b8114610d67575f80fd5b50565b5f81519050610d7881610d54565b92915050565b5f60208284031215610d9357610d92610930565b5b5f610da084828501610d6a565b91505092915050565b5f819050815f5260205f209050919050565b5f6020601f8301049050919050565b5f82821b905092915050565b5f60088302610e057fffffffffffffffffffffffffffffffffffffffffffffffffffffffffffffffff82610dca565b610e0f8683610dca565b95508019841693508086168417925050509392505050565b5f610e41610e3c610e378461075f565b610b85565b61075f565b9050919050565b5f819050919050565b610e5a83610e27565b610e6e610e6682610e48565b848454610dd6565b825550505050565b5f90565b610e82610e76565b610e8d818484610e51565b505050565b5b81811015610eb057610ea55f82610e7a565b600181019050610e93565b5050565b601f821115610ef557610ec681610da9565b610ecf84610dbb565b81016020851015610ede578190505b610ef2610eea85610dbb565b830182610e92565b50505b505050565b5f82821c905092915050565b5f610f155f1984600802610efa565b1980831691505092915050565b5f610f2d8383610f06565b9150826002028217905092915050565b610f4682610696565b67ffffffffffffffff811115610f5f57610f5e6109bd565b5b610f698254610c26565b610f74828285610eb4565b5f60209050601f831160018114610fa5575f8415610f93578287015190505b610f9d8582610f22565b865550611004565b601f198416610fb386610da9565b5f5b82811015610fda57848901518255600182019150602085019450602081019050610fb5565b86831015610ff75784890151610ff3601f891682610f06565b8355505b6001600288020188555050505b505050505050565b7f4e487b71000000000000000000000000000000000000000000000000000000005f52601160045260245ffd5b5f6110438261075f565b91507fffffffffffffffffffffffffffffffffffffffffffffffffffffffffffffffff82036110755761107461100c565b5b60018201905091905056fea264697066735822122028da9bbea7d60cd1d4df84afe35adaee021ee3aec8145b25615d877002f3855f64736f6c63430008170033",
  "linkReferences": {},
  "deployedLinkReferences": {}
}